:020000040800F2
:1000000000000120D14500082146000821460008D3
:100010002146000821460008214600080000000093
:100020000000000000000000000000002146000861
:100030002146000800000000214600088F33000818
:1000400021460008214600082146000821460008F4
:100050002146000821460008853400088B3400083A
:1000600091340008973400089D34000821460008A8
:1000700021460008214600082146000821460008C4
:100080002146000821460008214600080000000023
:10009000000000000000000000000000A334000881
:1000A0003D310008B530000851310008D930000852
:1000B000ED30000801310008153100082146000824
:1000C0002146000821460008214600082146000874
:1000D00021460008A93E0008C13E000800000000BB
:1000E000CB3400082146000821460008000000002B
:1000F0000000000000000000000000002146000891
:1001000000000000214600082931000821460008AF
:1001100000000000000000000000000000000000DF
:100120002146000821460008214600082146000813
:100130002146000800000000000000000000000050
:100140000000000000000000000000002146000840
:10015000214600082146000821460008DD3E00082F
:1001600021460008214600080000000000000000B1
:10017000000000000000000000000000000000007F
:100180000000000021460008000000000000000000
:0401900021460008FC
:10019400034613F8012B002AFBD1181A01387047C3
:1001A40081F0004102E000BF83F0004330B54FEA24
:1001B40041044FEA430594EA050F08BF90EA020F91
:1001C4001FBF54EA000C55EA020C7FEA645C7FEA24
:1001D400655C00F0E2804FEA5454D4EB5555B8BF47
:1001E4006D420CDD2C4480EA020281EA030382EAB8
:1001F400000083EA010180EA020281EA0303362D4A
:1002040088BF30BD11F0004F4FEA01314FF4801C1C
:100214004CEA113102D0404261EB410113F0004F2E
:100224004FEA03334CEA133302D0524263EB4303E5
:1002340094EA050F00F0A780A4F10104D5F1200E83
:100244000DDB02FA0EFC22FA05F2801841F10001DE
:1002540003FA0EF2801843FA05F359410EE0A5F1B2
:1002640020050EF1200E012A03FA0EFC28BF4CF0E3
:10027400020C43FA05F3C01851EBE37101F0004599
:1002840007D54FF0000EDCF1000C7EEB00006EEBA6
:100294000101B1F5801F1BD3B1F5001F0CD3490830
:1002A4005FEA30004FEA3C0C04F101044FEA445287
:1002B40012F5800F80F09A80BCF1004F08BF5FEA0E
:1002C400500C50F1000041EB045141EA050130BDEE
:1002D4005FEA4C0C404141EB0101013C28BFB1F500
:1002E400801FE9D291F0000F04BF01460020B1FA4B
:1002F40081F308BF2033A3F10B03B3F120020CDA1E
:100304000C3208DD02F1140CC2F10C0201FA0CF0FB
:1003140021FA02F10CE002F11402D8BFC2F1200C60
:1003240001FA02F120FA0CFCDCBF41EA0C01904016
:10033400E41AA2BF01EB0451294330BD6FEA04045F
:100344001F3C1CDA0C340EDC04F11404C4F120024A
:1003540020FA04F001FA02F340EA030021FA04F35C
:1003640045EA030130BDC4F10C04C4F1200220FAB3
:1003740002F001FA04F340EA0300294630BD21FAF1
:1003840004F0294630BD94F0000F83F4801306BFB7
:1003940081F480110134013D4EE77FEA645C18BFAB
:1003A4007FEA655C29D094EA050F08BF90EA020F42
:1003B40005D054EA000C04BF1946104630BD91EA3A
:1003C400030F1EBF0021002030BD5FEA545C05D13D
:1003D4004000494128BF41F0004130BD14F580047C
:1003E4003CBF01F5801130BD01F0004545F0FE41F0
:1003F40041F470014FF0000030BD7FEA645C1ABF25
:10040400194610467FEA655C1CBF0B46024650EA5B
:10041400013406BF52EA033591EA030F41F4002187
:1004240030BD00BF90F0000F04BF0021704730B50D
:100434004FF4806404F132044FF000054FF00001E2
:1004440050E700BF90F0000F04BF0021704730B5A3
:100454004FF4806404F1320410F0004548BF404278
:100464004FF000013EE700BF42004FEAE2014FEACD
:1004740031014FEA02701FBF12F07F4393F07F4FA8
:1004840081F06051704732F07F4208BF704793F0AB
:100494007F4F04BF41F40021704730B54FF46074BE
:1004A40001F0004521F000411CE700BF50EA0102C1
:1004B40008BF704730B54FF000050AE050EA01026A
:1004C40008BF704730B511F0004502D5404261EBDA
:1004D40041014FF4806404F132045FEA915C3FF41B
:1004E400D8AE4FF003025FEADC0C18BF03325FEAB8
:1004F400DC0C18BF033202EBDC02C2F1200300FA69
:1005040003FC20FA02F001FA03FE40EA0E0021FA8D
:1005140002F11444BDE600BF70B54FF0FF0C4CF47B
:10052400E06C1CEA11541DBF1CEA135594EA0C0F2D
:1005340095EA0C0F00F0DEF82C4481EA030621EA68
:100544004C5123EA4C5350EA013518BF52EA0335A3
:1005540041F4801143F4801338D0A0FB02CE4FF055
:100564000005E1FB02E506F00042E0FB03E54FF085
:100574000006E1FB03569CF0000F18BF4EF0010E7D
:10058400A4F1FF04B6F5007F64F5407404D25FEA79
:100594004E0E6D4146EB060642EAC62141EA55512C
:1005A4004FEAC52040EA5E504FEACE2EB4F1FD0C6E
:1005B40088BFBCF5E06F1ED8BEF1004F08BF5FEAEC
:1005C400500E50F1000041EB045170BD06F000469E
:1005D40046EA010140EA020081EA0301B4EB5C044B
:1005E400C2BFD4EB0C0541EA045170BD41F4801143
:1005F4004FF0000E013C00F3AB8014F1360FDEBF68
:10060400002001F0004170BDC4F10004203C35DA43
:100614000C341BDC04F11404C4F1200500FA05F3C6
:1006240020FA04F001FA05F240EA020001F0004267
:1006340021F0004110EBD37021FA04F642EB0601DD
:100644005EEA430E08BF20EAD37070BDC4F10C0407
:10065400C4F1200500FA04F320FA05F001FA04F2CB
:1006640040EA020001F0004110EBD37041F10001B7
:100674005EEA430E08BF20EAD37070BDC4F12005C2
:1006840000FA05F24EEA020E20FA04F301FA05F22A
:1006940043EA020321FA04F001F0004121FA04F2D2
:1006A40020EA020000EBD3705EEA430E08BF20EAA2
:1006B400D37070BD94F0000F0FD101F000464000DC
:1006C40041EB010111F4801F08BF013CF7D041EA5E
:1006D400060195F0000F18BF704703F00046520062
:1006E40043EB030313F4801F08BF013DF7D043EA33
:1006F4000603704794EA0C0F0CEA135518BF95EAE9
:100704000C0F0CD050EA410618BF52EA4306D1D16F
:1007140081EA030101F000414FF0000070BD50EA8E
:10072400410606BF1046194652EA430619D094EA18
:100734000C0F02D150EA013613D195EA0C0F05D102
:1007440052EA03361CBF104619460AD181EA030156
:1007540001F0004141F0FE4141F470014FF000000E
:1007640070BD41F0FE4141F4780170BD70B54FF0A9
:10077400FF0C4CF4E06C1CEA11541DBF1CEA135529
:1007840094EA0C0F95EA0C0F00F0A7F8A4EB05040B
:1007940081EA030E52EA03354FEA013100F0888002
:1007A4004FEA03334FF0805545EA131343EA1263CB
:1007B4004FEA022245EA111545EA10654FEA002680
:1007C4000EF000419D4208BF964244F1FD0404F539
:1007D400407402D25B084FEA3202B61A65EB030595
:1007E4005B084FEA32024FF480104FF4002CB6EB52
:1007F400020E75EB030E22BFB61A754640EA0C00D2
:100804005B084FEA3202B6EB020E75EB030E22BF11
:10081400B61A754640EA5C005B084FEA3202B6EB52
:10082400020E75EB030E22BFB61A754640EA9C0011
:100834005B084FEA3202B6EB020E75EB030E22BFE1
:10084400B61A754640EADC0055EA060E18D04FEA9F
:10085400051545EA16754FEA06164FEAC30343EA3F
:1008640052734FEAC2025FEA1C1CC0D111F4801F0C
:100874000BD141EA00014FF000004FF0004CB6E705
:1008840011F4801F04BF01430020B4F1FD0C88BFA4
:10089400BCF5E06F3FF6AFAEB5EB030C04BFB6EBAF
:1008A400020C5FEA500C50F1000041EB045170BDA2
:1008B4000EF0004E4EEA113114EB5C04C2BFD4EBCF
:1008C4000C0541EA045170BD41F480114FF0000E53
:1008D400013C90E645EA060E8DE60CEA135594EACF
:1008E4000C0F08BF95EA0C0F3FF43BAF94EA0C0FD2
:1008F4000AD150EA01347FF434AF95EA0C0F7FF447
:1009040025AF104619462CE795EA0C0F06D152EA9A
:1009140003353FF4FDAE1046194622E750EA41067E
:1009240018BF52EA43067FF4C5AE50EA41047FF48F
:100934000DAF52EA43057FF4EBAE12E74A0011D241
:1009440012F5001211D20DD56FF47873B3EB625225
:100954000ED44FEAC12343F0004343EA505323FA31
:1009640002F070474FF00000704750EA013002D1A6
:100974004FF0FF3070474FF00000704753B94AB949
:10098400002908BF00281CBF4FF0FF314FF0FF3093
:1009940000F00CB8ADF1080C6DE904CE04F0D6F803
:1009A400DDF804E0DDE9022304B07047704700BFBE
:1009B40010B5054C237833B9044B13B10448AFF395
:1009C40000800123237010BD880000200000000077
:1009D400544E000808B5034B1BB103490348AFF359
:1009E400008008BD000000008C000020544E000868
:1009F40090F872007047012A02D10160002070470C
:100A0400022A05D0032AF9D0002AF7D10260F5E7BB
:100A14000B680360F2E730B4134604689B680D4624
:100A2400A44611682878526830BC604773B5062222
:100A34002548264D264C4FF4E13103F0E1FC012119
:100A4400082003F0EDFD0021082003F047FE0121FA
:100A54001F2003F0E5FD284606224FF4165103F04B
:100A6400CFFC0B224FF41651204601F0ABF801469F
:100A7400204601F0BFF8E563012508202946A4F8C3
:100A8400400084F8425003F0CBFD94F84210B4F9CE
:100A94004000694003F022FE032684F84D500025EF
:100AA400ADF806508DF80460019901230022204618
:100AB400013500F081F9052DF2D10649024802B052
:100AC400BDE8704003F030BDC803002018010020C9
:100AD400A40000206C4E000873B51148114D01F0BC
:100AE4000DF900240326ADF806408DF8046035F8AE
:100AF400022B01990A48013400F0D8F9052CF2D1EF
:100B04001F2003F023FEB0FA80F149091F2003F0EF
:100B1400E5FD4FF4FA7002B0BDE8704003F056BE34
:100B2400A40000200000002013B524230093C22257
:100B3400C3211B481B4C03F05DFB1B4B1B48DC61B2
:100B440000224FF08071C3E9012119495962C3E9B8
:100B54000D104FF6FF71C3E90322C3E90522C3E96F
:100B64000B42C3E91522C3E91722C3E919221A6209
:100B7400A3F840109A64012183F84C201A6583F885
:100B84006C20A3F86E2083F872200A4A83F842107E
:100B94007D219862A3F870101A6002B010BD00BFE6
:100BA4001801002085130008A40000201B0A000877
:100BB400FB090008BC4E0008074908B5074B0B6049
:100BC400CB6D1BB15431032208469847BDE8084059
:100BD400014800F099BB00BFA4000020AC4E0008FF
:100BE40000207047836810B5044613B10322014600
:100BF4009847204610BD02780B789A4205D1408868
:100C04004B88C31A5842584170470020704738B582
:100C14000D4604460168A81CFFF7EDFF20B12B78B0
:100C240022799B1A5842584138BD0000F0B5274A32
:100C3400D2E9005785B00B0CADF80E307E1B244B67
:100C44008DF80C1076105E43B610002E2C460ADC8C
:100C54007B1B0C2B29D0122B21D0062B2BD000244C
:100C6400204605B0F0BD03A92846FFF7C4FF38BBF2
:100C7400AC1D03A92046FFF7BEFF08BB05F10C0419
:100C840003A92046FFF7B7FFD0B905F1120403A961
:100C94002046FFF7B0FF183590B9013ED5E703A908
:100CA4002846FFF7A8FF58B9063403A92046FFF7E2
:100CB400A2FF28B9063403A92046FFF79CFF18B108
:100CC400A74208BF0024CBE70446C9E74C02002032
:100CD400ABAAAAAA2DE9F04FDFF8D890D9F80050B2
:100CE40085B088469B461746D9F804A0304BCDF80A
:100CF4000880AAEB0506F6105E438DF80CB0B6101A
:100D0400002E2C460BDCAAEB0503302B2AD0482BF3
:100D140022D0182B2CD0384605B0BDE8F08F2946D8
:100D240002A8FFF774FF48BB05F11804214602A886
:100D3400FFF76DFF10BB05F13004214602A8FFF751
:100D440066FFD8B905F14804214602A8FFF75FFF02
:100D5400603598B9013ED3E7294602A8FFF757FF4B
:100D640060B91834214602A8FFF751FF30B918348E
:100D7400214602A8FFF74BFF0028CCD0A245CAD0D9
:100D84002369CDF80880ADF806700BB904F05DF85E
:100D940063690DF1060202A904F108009847D9F825
:100DA400043004F118059D4207469DD1B3E700BF06
:100DB400ABAAAAAA400200202DE9F04F93464FF6B1
:100DC400FF72A2EB11429A424FEA1146BCBFF343B1
:100DD4009BB287B033449BB2DFF8CC900391824638
:100DE4000293029BB34203D1012007B0BDE8F08F08
:100DF400DAF800309DF80C808DF81480ADF8166098
:100E04001B6805995046984758B9D9E901439C4253
:100E14000AD084F800806680A4F804B00634C9F8C7
:100E240004400136B6B2DCE7D9F800501B48641B15
:100E3400611041431A48814202D11A4804F002F871
:100E440001290F4638BF0127C91902D2884228BF99
:100E54000846062101FB00F31846019302F0D5F978
:100E64000119002C00F8048007464E80A1F804B054
:100E740003DD2246294603F0C5FD06343C442DB16A
:100E8400D9F808102846491B02F0C1F9019BC9E9A9
:100E940000741F44C9F80870C3E700BFABAAAAAA2C
:100EA40055555515864E00084C02002073B503684D
:100EB40001911B68054616469847044648B1EB7AEB
:100EC4004BB10146002332462846FFF703FFA080BA
:100ED400012002B070BD8680FAE713B50368019162
:100EE4001B6804469847014648B1E37A82883BB1BF
:100EF4000123204602B0BDE81040FFF7EBBE0246D6
:100F0400104602B010BDF7B50446406815461F46AA
:100F14000E0C03F083FC0520208103F077FC606055
:100F240018B90123A37203B0F0BD330A43702B0A2E
:100F340007708670C3700571F5E770B504464068A4
:100F44000D46164603F06AFC0220208103F05EFC85
:100F5400606028B1803D057046700323A37270BDA4
:100F64000123FBE72DE9F34703EB124300258146F8
:100F740088460192160C9FB22C464FF0010AB742E4
:100F840002D102B0BDE8F087ADF806600199484689
:100F9400FFF7A3FF18F805300AFA04F20134B0F59C
:100FA4007F4FD2B2E4B208EB05010CBF1343934365
:100FB400082C08BF013506F101060B7004BFADB261
:100FC4000024B6B2DBE72DE9FF41074688460192CB
:100FD4001C460026F5B2A54206F1010602DB04B068
:100FE400BDE8F081BDF806309DF804208DF80C2092
:100FF4002B44ADF80E3003993846FFF76EFF40BA24
:1010040028F81500E6E7F7B51F46531EB3F5FA6F47
:1010140005460191164602D3032003B0F0BDBDF886
:101024000620C2F57F42FF32B242F5DB03681B683B
:1010340098470028F0D0686803F0F0FBF4087307C1
:101044000CBF023403342C81204603F0DFFB6860BC
:1010540080B1A31E0444077000274370811C3346EB
:101064002846019A04F8017CFFF77CFF0323AB7246
:101074003846D2E70420D0E7F7B51F46531E7C2B31
:1010840005460191164624D8BDF80630C3F57F43C2
:10109400FF3393421DDB03681B689847D8B1741C67
:1010A40064006868A4B203F0B9FB2C81204603F005
:1010B400ADFB686088B1023C077044703346811C04
:1010C400019A2846FFF77FFF0323AB72002003B089
:1010D400F0BD0320FBE70220F9E70420F7E72DE940
:1010E400F34703EB12430025804689460192160C10
:1010F4009FB24FF0010A2C46BE4203D1504602B0C3
:10110400BDE8F08719F80530ADF80660234113F007
:10111400010F14BF4FF47F42002201994046FFF7AC
:10112400C5FE01994046FFF7D8FE19F80530234162
:1011340013F0010304F1010418BF4FF47F43E4B238
:10114400984214BF4FF0000A0AF0010A082C08BFA5
:10115400013506F1010604BFADB20024B6B2CBE7F7
:101164002DE9F04F85B005460E46019298464FF0A2
:10117400000901275FFA89FAC24509F1010903DB75
:10118400384605B0BDE8F08FBDF8064036F81A20A1
:101194009DF804B08DF808B05444A4B2ADF80A40E8
:1011A40052BA92B202992846FFF780FE8DF80CB02D
:1011B400ADF80E4003992846FFF78FFE36F81A2043
:1011C40052BA92B2824214BF002707F00107D1E756
:1011D40070B50024013920464FF6FF76013B9BB2DF
:1011E400B34200D170BD155D05410130C0B208287D
:1011F40005F0010508BF013401F8015F04BFA4B282
:101204000020EBE7F7B591F900500193002D089CFD
:101214000B78064602DA4B78B3722DE015789D42BE
:1012240001D0E223F8E700238372B2F80330022DE1
:101234005BBA9BB202D86DBBE123EDE7033DEDB28F
:10124400142DF9D82E4F0122AA401740A7B92D4FCB
:10125400174047B9112DEFD14F78FB1FDBB2EE2BAE
:1012640033D90323D8E74A78B2EB430FD9D10231FB
:1012740054B12244944201D103B0F0BD31F8023B91
:101284005BBA24F8023BF5E7019A03B0BDE8F040ED
:10129400FFF766BF5807C3F3C70218BF0132487887
:1012A40018BFD2B29042BCD102313CB10A4630469A
:1012B400214603B0BDE8F040FFF78ABF019A3046EB
:1012C40003B0BDE8F040FFF70ABF8D1C0F44BD42D8
:1012D400D2D26B78062BC4D12A78D31FDBB2EE2B83
:1012E400BFD8AB189F42BCD3A91C204603F08AFB8D
:1012F4002B7801331D442B78013B1C44E7E700BFE6
:101304000C300C000300100010B50A4B03600446B7
:10131400406803F083FA04F12C00FFF763FC04F146
:101324001C00FFF75FFC04F10C00FFF75BFC204698
:1013340010BD00BFCC4E000810B51048846886B0BC
:10134400CCB1ADF81030BDF82030ADF81230099BA7
:10135400059305AB01930DF1120300938DF80D1065
:10136400ADF80E20C46804AB0DF10E020DF10D01B1
:10137400A04706B010BD0220FBE700BF30020020EA
:1013840084B004A800E90E00002004B0704782B0C5
:1013940013B50DF1100C8CE80C0083688DF8071060
:1013A4000BB903F052FDC36804AA0DF10701984775
:1013B40002B0BDE8104002B070472DE9F04F0D4671
:1013C4000978B5F80160B5F803A06B7876BA9AFA93
:1013D4009AF84A1E9BB004461FFA86F91FFA88F74A
:1013E400162A00F29583DFE812F0EB0019015C0085
:1013F4004801770117009303930393039303930323
:10140400930393039303BC018B009303930393030C
:1014140021029902CE022203199BADF85E604FF0BF
:1014240003098DF85C90ADF86080009317AD95E8E2
:101434000C00062104F11C00FFF7A9FF024630B19D
:10144400062120461BB0BDE8F04FFFF776BD8DF8AE
:101454001090ADF8126004993A462046FFF726FD35
:1014640008B90222ECE78DF81490ADF816600599DE
:101474002046FFF732FDB84201D00422E0E7022300
:10148400A372199B8DF85C90ADF85E60ADF8608036
:10149400009395E80C00062104F12C00FFF777FF78
:1014A4004AE2199BADF85E6003258DF85C50ADF8F7
:1014B400608000930DF15C0999E80C00294604F161
:1014C4001C00FFF764FF024608B12946B9E78DF80E
:1014D4001850ADF81A603A4606992B462046FFF795
:1014E400CBFD02460028F0D1199B8DF85C50ADF875
:1014F4005E60ADF86080009399E80C002946CBE764
:10150400199BADF85E604FF0030A8DF85CA0ADF84E
:10151400608000930DF15C0B9BE80C00102104F13A
:101524001C00FFF734FF024608B1102189E77B1E37
:101534007C2B0AD8C9F57F43FF33BB4205DB6B79AB
:101544000FFA88F1B3EB410F01D00322EDE709EB69
:10155400020123688DF81CA0ADF81E1002921B68CE
:10156400079920469847029A08B90222DDE701321A
:1015740093B2BB42EBD38DF820A0ADF82260089A59
:101584003B46A91D2046FFF7EBFD08B90422CCE732
:101594008DF824A0ADF82660099910233A46204618
:1015A400FFF7B1FC199B84F80AA08DF85CA0ADF894
:1015B4005E60ADF8608000939BE80C0010216BE73F
:1015C40000238DF85C30199BADF85E60ADF8608047
:1015D400009317AD95E80C00012104F11C00FFF7FE
:1015E400D6FE024608B101212BE78DF82800ADF89C
:1015F4002A603A460A9901232046FFF704FD024671
:101604000028F0D1199B8DF85C00ADF85E60ADF850
:101614006080009395E80C0001213DE7199BADF82B
:101624005E604FF001098DF85C90ADF86080009326
:1016340017AD95E80C00022104F11C00FFF7A7FE8A
:10164400024608B10221FCE68DF82C90ADF82E601C
:101654003A460B9902232046FFF7D5FC02460028A0
:10166400F0D1199B8DF85C90ADF85E60ADF86080A8
:10167400009395E80C0002210EE7199BADF85E601B
:101684004FF002098DF85C90ADF86080009317ADBF
:1016940095E80C00042104F11C00FFF778FE0246D3
:1016A40008B10421CDE68DF83090ADF832603A46A9
:1016B4000C9904232046FFF7DFFC02460028F0D1F2
:1016C400199B8DF85C90ADF85E60ADF86080009376
:1016D40095E80C000421DFE600238DF85C30199BAB
:1016E400ADF85E60ADF86080009317AD95E80C002E
:1016F400052104F11C00FFF74AFE024608B105214A
:101704009FE6BAF1FF0F04D0BAF1000F01D0032213
:10171400F5E74FF000098DF83490ADF836600D9977
:101724003A462046FFF7C2FB08B90222E7E78DF8E4
:101734003890ADF83A600E992046FFF7CEFBB842D8
:1017440001D00422DBE70223A372199B8DF85C907D
:10175400ADF85E60ADF86080009395E80C0005215B
:101764009AE600238DF85C30199BADF85E60ADF805
:10177400608000930DF15C0A9AE80C000F2104F1DB
:101784001C00FFF704FE024608B10F2159E67A0750
:101794004FEAD70307F1FF3218BF0133B2F5FA6FEE
:1017A40007D2C9F57F42FF32BA4202DB6A799A4214
:1017B40001D00322E9E700239B4609EB03012268D9
:1017C4008DF83CB0ADF83E10029312680F99204694
:1017D4009047029B08B90222D7E701339AB2BA4272
:1017E400EBD38DF840B0ADF84260109A3B46A91D8A
:1017F4002046FFF774FC08B90422C6E78DF844B00C
:10180400ADF8466011990F233A462046FFF77BFB5B
:101814000323A372199B8DF85CB0ADF85E60ADF83C
:10182400608000939AE80C000F2135E6DA1FD2B2EB
:10183400EE2A02D90322142103E60235072229469F
:10184400B3FBF2F34FF002080293002242F20F7648
:10185400B1F80300B1F8053091F800B040BA5BBAB2
:10186400BBF1060F80B29BB201D1B04201D9022272
:10187400E1E7013308EB43035FFA83F80132029B8B
:10188400D2B2934201F10701E2D14046D4F804A058
:1018940002F0BCFF606020B9504602F0BFFF042292
:1018A400C9E7A4F80880861C4FF00009B5F8057054
:1018B400B5F80330B5F801207FBAB11CBFB25BBAEA
:1018C40052BACDE900719BB292B214212046FFF7BF
:1018D40033FD28B10290504602F0A0FF029AAAE715
:1018E4007F007B1C337009F10109029B86F801B06B
:1018F4005FFA89F902374B453E4405F10705D5D116
:10190400636814221A706368504683F801800323C5
:10191400A3721BB0BDE8F04F02F080BF093BDBB2FD
:10192400F22B02D9032215218BE5AE1C68782844DA
:10193400B04204D80223A3721BB0BDE8F08F337801
:10194400062B01D00222EEE7B6F80510B6F8012006
:10195400B6F8033049BA89B206EB410C52BA5BBA05
:10196400604592B29BB24FEA4107EBD3F01DCDE93B
:10197400001015212046FFF7DFFC02460028D2D1D3
:1019840007373E44D2E7B5F80590199BADF85E6081
:1019940099FA99F94FF0030A8DF85CA0ADF86080CC
:1019A400ADF8629000930DF15C0B9BE80C001621DE
:1019B40004F11C00FFF7EBFC1FFA89F5024608B19D
:1019C40016213EE58DF848A0ADF84A6012992046EC
:1019D400FFF783FA25EA0703384040EA03058DF848
:1019E4004CA0ADF84E6013992A462046FFF75EFAE4
:1019F40008B90222E4E78DF850A0ADF852601499BA
:101A04002046FFF76AFAA84201D00422D8E702234D
:101A1400A372199B8DF85CA0ADF85E60ADF8608090
:101A2400ADF8629000939BE80C00162134E5B5F8FC
:101A34000530B5F807A0ADF85E605BBA9AFA9AFA79
:101A4400ADF808301FFA8AF30393BDF80830ADF8F7
:101A54006430ADF866A0199B00934FF0030B8DF82A
:101A64005CB0ADF860808DF862B017AB0CCB172179
:101A740004F11C00FFF78BFC024608B11721E0E4D7
:101A84007B1E7C2B10D81FFA8AF3013B7C2B0BD8CE
:101A9400C9F57F4909F1FF09B94505DB6B7A0FFAEE
:101AA4008AF2B3EB420F01D00322E7E7BDF8083016
:101AB400ADF856308DF854B0159A1FFA8AF305F133
:101AC4000A012046FFF74CFB08B90422D6E78DF83B
:101AD40058B0ADF85A603A46169917232046FFF7D6
:101AE400CBFA02460028C9D1BDF80830ADF86430FD
:101AF400ADF866A0199B00938DF85CB0ADF85E60FC
:101B0400ADF860808DF862B017AB0CCB1721C3E43D
:101B1400012296E4074A0023C2E900339360064A8F
:101B2400C2E900339360054AC2E90033C2E90233D3
:101B3400704700BF4C020020400200203002002009
:101B440070B50F4C0F48FFF74DF8D4E90056AE427C
:101B54000ED1206818B1A168091A01F058FB0A4B8C
:101B6400186858B19968BDE87040091A01F04FBB74
:101B740005F10800FFF736F81835E8E770BD00BF37
:101B840040020020300200204C020020C943C9B2A8
:101B940030B50B4C34F811006FEA1021C9B2C0B251
:101BA40013449A4202D140EA012030BD12F8015B8D
:101BB400694034F8115080EA1521E8B2F1E700BF1A
:101BC400D44E0008B1F5964F08B50CD8074B5A43CC
:101BD400B2FBF1F0FEF726FC054B0022FEF79CFC5D
:101BE400FEF7ACFE08BD40F2D660FBE740420F00B2
:101BF40000000C40416470472DE9F84304468946CF
:101C040017469846FFF7C2FF0646B4F9400000287D
:101C140011DB94F8421002F061FD1A4B1A4A1D6858
:101C240051681A4BB5FBF3F54FF47A735D4353686F
:101C34005B1A9D42FBDCE06B036849461B689847CE
:101C4400E06B036842465B6839469847E06B03687B
:101C5400C6F307211B689847E06B0368F1B21B6861
:101C64009847E06B0368DB689847B4F940000028A4
:101C740005DB94F8421081F0010102F02FFD0120F0
:101C8400BDE8F88330000020001000E040420F005F
:101C9400F7B590F84D30044613B9002003B0F0BDF9
:101CA40002F092FD236DC01A134B9842F5D9E36DEF
:101CB400C3B1E423002504F154068DF80130276EE6
:101CC400ADF8025001AB01950DF102020DF10101D5
:101CD4003046B847E36D2BB103223146304698476E
:101CE400C4E91755A06E02F099FD0023C4E9193325
:101CF40084F84D300120D1E740420F002DE9F04334
:101D04000446C06B03688BB01B69984723899842CB
:101D140007DDE06B03681B699847208102F054FDDE
:101D2400A064228994F84C303AB9002B48D020465C
:101D34000BB0BDE8F043FFF7ABBF0BB302F044FDBB
:101D4400A36CC01A636C98423AD3E06B03685B6976
:101D540098472389013B238194F84C30C0B284F81E
:101D64007200002B2FD10126002835D094F84D3075
:101D740083422FD06569002D00F0918000262BE06E
:101D840002F022FD754E054602F01EFDA26C0346CC
:101D94009B1A626CE06B93420168D6D20B69984738
:101DA4002389984207DDE06B03681B69984720810B
:101DB40002F00AFDA06402F007FD401BB042E3D923
:101DC4000BB0BDE8F08394F84D60003E18BF0126C7
:101DD4000028CBD1002ECDD0606802F01FFD2089F1
:101DE40002F014FD05466060002867D000252389B1
:101DF400EFB29F4205F1010567DB676894F87290C2
:101E0400FA189D1E12F8021C12F8018CADB225813D
:101E1400EDB248EA01282B463A4649462046FFF7E8
:101E2400B5FE40455AD1E723A3726369002B00F045
:101E3400918094F84C308DF80F5083F001038DF8A5
:101E4400183006AB0593A5698DF81C90049705AB73
:101E54000DF10F0204A904F10C00A847A072002E92
:101E64003AD094F84C306168002B3DD1A37A1933F1
:101E7400DBB2012B32D82046FFF79FFA94F8721098
:101E8400002964D0A37A012B28D0237A62682046E3
:101E9400FFF7B2FE22E0E06B03685B699847228992
:101EA400EBB2934205F10105F5DB0023238194F89D
:101EB4004C303AE7E06B03685B6998472289EBB2E0
:101EC400934205F10105F5DBEFE7E06B03685B691D
:101ED40098476368D8558AE7E828C2D0606802F05A
:101EE4009DFC00236360E1E7A26E0B78107803F099
:101EF4007F0398422BD1A37A1933DBB2012B05D887
:101F0400636E0093E36E2046FFF77CF9E36DB3B193
:101F1400A37A8DF81030002504F1540606AB276E21
:101F2400ADF81450069505AA04A93046B847E36DE8
:101F34002BB10322314630469847C4E91755A06EA9
:101F440002F06CFC0023C4E9193384F84D300123FA
:101F5400A372C3E7002E84D1C0E700BFA0860100AE
:101F64007047000038B50E4B1A784FF47A73B3FB00
:101F7400F2F30C4A05461068B0FBF3F000F0A6F843
:101F8400044658B90F2D09D8024629464FF0FF30B0
:101F940000F04AF8044B20461D6038BD0120FCE7E0
:101FA4000A000020300000200C00002008B50B4B74
:101FB4001A6842F400721A601A6842F480621A6065
:101FC4001A6842F480721A60032000F01BF80020A3
:101FD400FFF7C8FFFFF7C4FF002008BD003C024024
:101FE400034A044B11681B780B441360704700BF0D
:101FF400580200200A000020014B1868704700BFF7
:10200400580200200749CA6822F4E062030212045D
:1020140003F4E063120C134343F0BF6343F400334F
:10202400CB60704700ED00E0164B30B5DC68C4F3BC
:102034000224C4F10703251D042B28BF0423062D05
:102044004FF0FF358CBF033C002405FA03F321EA6B
:102054000303A54022EA0502A340002843EA020341
:10206400ACBF00F16040084A4FEA0313B8BF00F068
:102074000F00DBB2AABF00F56140135480F80033AF
:1020840030BD00BF00ED00E014ED00E0002807DBE8
:10209400044A4109012300F01F00834042F8213023
:1020A400704700BF00E100E000280CDB430906494B
:1020B40000F01F0020330122824041F82320BFF3A7
:1020C4004F8FBFF36F8F704700E100E00138B0F12C
:1020D400807F0BD24FF0E023054A5861F02182F84B
:1020E40023100020072298611A617047012070476D
:1020F40000ED00E0002808DB4309044900F01F005C
:1021040001226033824041F82320704700E100E05F
:10211400704708B5FFF7FCFF08BD704710B50446CB
:1021240050B1437903F0FF0213B90271FFF7F5FFD1
:1021340001236371002010BD0120FCE770B5044643
:10214400866DFFF759FF94F83530022B054606D00B
:10215400802363650120002384F8343070BD236834
:102164001A6822F016021A605A6922F080025A6133
:10217400226C0AB9A26C1AB11A6822F008021A6019
:102184001A6822F001021A602368186810F001002E
:1021940007D1E26D3F239340B360012384F83530C7
:1021A400D9E7FFF729FF401B0528EDD92023032099
:1021B400636584F83500CEE790F83530022B03D000
:1021C40080234365012070470268052380F8353079
:1021D400136823F00103136000207047044A516917
:1021E400014208B502D0506101F034F908BD00BFC6
:1021F400003C01402DE9F341044640B30368DE0787
:1022040010D423689D075BD42368190700F19D80CF
:1022140023685A0700F1BD80A369002B40F0248194
:1022240000202CE08D4B9A6802F00C02042A07D09F
:102234009A6802F00C02082A0BD15B68590208D58F
:10224400864B1B689A03DCD56368002BD9D1012027
:1022540015E06368814DB3F5803F13D12B6843F4D7
:1022640080332B60FFF7C8FE7C4E054633689B0322
:10227400C7D4FFF7C1FE401B6428F7D9032002B07E
:10228400BDE8F081B3F5A02F04D12B6843F480237B
:102294002B60E3E72A6822F480322A602A6822F459
:1022A40080222A60002BDDD1FFF7A6FE06462B68AC
:1022B4009F03A6D5FFF7A0FE801B6428F7D9DDE7AE
:1022C400664B9A6812F00C0F07D09A6802F00C0261
:1022D400082A11D15B685D020ED4604A136899071D
:1022E40002D5E368012BB2D11368216923F0F80306
:1022F40043EAC103136087E7E268594BB2B1012294
:102304001A60FFF779FE554D06462B689B0707D5E3
:102314002B68226923F0F80343EAC2032B6073E7B6
:10232400FFF76AFE801B0228EFD9A7E71A60FFF7C0
:1023340063FE4A4E054633689F077FF565AFFFF796
:102344005BFE401B0228F6D998E76269444B82B1D0
:102354000122C3F8802EFFF74FFE404E0546736FEF
:102364009B073FF555AFFFF747FE401B0228F6D900
:1023740084E7C3F8802EFFF73FFE384E0546736F9F
:102384009F077FF545AFFFF737FE401B0228F6D9BC
:1023940074E7324B1A6C12F0805228D101921A6CF5
:1023A40042F080521A641B6C03F080530193019B2A
:1023B40001272C4D2B68D8051BD5A368274D012B6D
:1023C40027D12B6F43F001032B67FFF715FE234E34
:1023D400054641F28838336F9A0739D5002F3FF408
:1023E4001BAF1E4A136C23F08053136414E70027B9
:1023F400DFE72B6843F480732B60FFF7FDFD06468F
:102404002B68D905D9D4FFF7F7FD801B0228F7D92B
:1024140034E7052B04D12B6F43F004032B67D0E77B
:102424002A6F22F001022A672A6F22F004022A6727
:10243400002BCAD1FFF7E0FD41F2883806462B6F26
:102444009B07CBD5FFF7D8FD801B4045F7D915E78F
:10245400FFF7D2FD401B4045BDD90FE700380240CD
:102464000000474200700040374DAA6802F00C0299
:10247400082A3ED0022B354B4FF000021A662BD1AE
:10248400FFF7BAFD06462B6899011FD4D4E9073239
:102494001343626A43EA8213E26A43EA0263A26A6A
:1024A4005208013A43EA02436B60284B264D01224D
:1024B4001A66FFF7A1FD04462B689A013FF5B0AEFA
:1024C400FFF79AFD001B0228F6D9D7E6FFF794FD23
:1024D400801B0228D7D9D1E6FFF78EFD04462B686E
:1024E4009B017FF59DAEFFF787FD001B0228F6D9FF
:1024F400C4E6012B3FF4ABAE6B68E26903F48001E0
:1025040091427FF4A4AE216A03F03F028A427FF431
:102514009EAE616A47F6C0721A40B2EB811F7FF427
:1025240096AEA26A520803F44031013AB1EB024F6D
:102534007FF48DAEE26A03F07063B3EB026F14BFF5
:10254400012000209BE600BF003802400000474203
:10255400134908B58B6803F00C03042B1CD0082B1B
:102564001CD14A684B68496813F4800314BF0D48B2
:102574000D48C1F3881118BF002302F03F02A1FBEC
:102584000001FEF7FBF9064B5B68C3F3014301331B
:102594005B00B0FBF3F008BD0248FCE70248FAE731
:1025A4000038024040787D010024F4002DE9F04118
:1025B4000D46044610B90120BDE8F081434B1A686A
:1025C40002F007028A4228D321688F072DD4C80756
:1025D40040D43E4B1A6802F00702AA4265D822682A
:1025E40051076BD4130707D5394A2169936823F43B
:1025F400604343EAC1039360FFF7AAFF344B354AB3
:102604009B68C3F30313D35CD840334B1860334B3C
:102614001868FFF7A7FC0020CEE7CAB21A701B683F
:1026240003F007038B42C6D1CEE7294B11F0040F08
:102634001EBF9A6842F4E0529A600E0742BF9A683D
:1026440042F460429A609A68A06822F0F002024361
:102654009A60BCE762681E4B012A1CD11B6813F404
:10266400003FA8D01A4EB36823F003031343B360AA
:10267400FFF7C2FC41F288380746B368626803F08A
:102684000C03B3EB820FA4D0FFF7B6FCC01B40458C
:10269400F3D9032090E7911E01291B6802D813F097
:1026A400007FDEE713F0020FDBE7EAB21A701B6863
:1026B40003F00703AB427FF47EAF90E70449E06880
:1026C4008B6823F4E05303438B608BE7003C0240A8
:1026D4000038024020510008300000200C00002087
:1026E400044B054A9B68C3F38223D35C034A1068F6
:1026F400D8407047003802401851000830000020CC
:10270400044B054A9B68C3F34233D35C034A106805
:10271400D8407047003802401851000830000020AB
:1027240070477047036870B5DD681E69B1070446D9
:102734000DD5AA070BD56FF002021A6101220277A8
:102744009B699B0769D000F05EFD00232377710726
:1027540010D56A070ED523686FF004021A610222AD
:1027640022779B6913F4407F20465CD000F04BFD38
:102774000023237733070FD528070DD523686FF07F
:1027840008021A6104222277DB699907204650D097
:1027940000F039FD00232377F20610D5EB060ED5A1
:1027A40023686FF010021A6108222277DB6913F4A0
:1027B400407F204643D000F026FD00232377F00716
:1027C40008D5E90706D523686FF001021A6120468F
:1027D40000F0F6FC320608D52B0606D523686FF008
:1027E40080021A61204600F09EF8700608D569063A
:1027F40006D523686FF040021A612046FFF791FF67
:10280400B20622D5AB0620D523686FF020022046FD
:102814001A61BDE8704000F085B800F0F2FC204673
:10282400FFF77EFF91E700F0ECFC2046FFF778FF0E
:102834009EE700F0E6FC2046FFF772FFAAE700F0EF
:10284400E0FC2046FFF76CFFB7E770BD1D4A036844
:1028540090420ED0B0F1804F0BD0A2F57C42904252
:1028640007D002F58062904203D002F58062904264
:1028740008D14A6823F070031343CA6823F44073F1
:1028840013430AE0104A9042F7D002F58062904266
:10289400F3D002F580629042EFD04A6923F08003BE
:1028A40013438A68C2620A688262064A904204BF7D
:1028B4000A690263026842F0040202600122426172
:1028C40003607047000001400040014010B5044619
:1028D40030B390F83D3003F0FF021BB980F83C2080
:1028E40001F0ECF80223206884F83D30211DFFF745
:1028F400ADFF012384F84630002084F83E3084F88C
:102904003F3084F8403084F8413084F8423084F811
:10291400433084F8443084F8453084F83D3010BDA9
:102924000120FCE770477047026802F10C0353E88A
:10293400003F23F490730C3242E80031026800290E
:10294400F2D102F1140353E8003F23F0010302F132
:10295400140C4CE800310029F3D1036B012B0BD18B
:1029640002F10C0353E8003F23F0100302F10C0CB6
:102974004CE800310029F3D1202380F842300023B1
:10298400036370470268C16838B5136923F4405380
:102994000B431361054683680069D1680343686982
:1029A4000343E86921F4164121F00C0103430B436E
:1029B400D3605369A96923F440730B4353611F4BDC
:1029C4009A4203D003F580639A4224D1FFF798FE1C
:1029D400EA691921B2F5004FD5E90043A0FB0101D2
:1029E4001CD1DA184FF0000545EB0503FDF7C6FFCF
:1029F4006422B0FBF2F102FB1103DB003233B3FBC0
:102A0400F2F303F007025B0002EB011203F4F87324
:102A14001344A36038BDFFF763FED9E79A009B0F08
:102A2400FDF7ACFF6422B0FBF2F102FB11031B01C2
:102A34003233B3FBF2F303EB0113EAE70010014076
:102A4400704710B5044648B390F8413003F0FF02D4
:102A54001BB980F84020FFF7F3FF2268242384F891
:102A64004130D36823F40053D3602046FFF78AFF34
:102A740023681A6922F490421A615A6922F02A02E0
:102A84005A61DA6842F40052DA600020202360645C
:102A940084F8413084F84230606310BD0120FCE7C3
:102AA40010B5044668B390F8413003F0FF021BB937
:102AB40080F84020FFF7C4FF2268242384F84130C3
:102AC400D36823F40053D3602046FFF75BFF2368E9
:102AD4001A6922F490421A615A6922F022025A6158
:102AE4005A6942F008025A61DA6842F40052DA6024
:102AF40000202023606484F8413084F8423060630D
:102B040010BD0120FCE790F84130202B10D189B191
:102B140082B1C28401628284016800232122436459
:102B240080F84120CA6842F08002CA6018467047A3
:102B3400022070470120704708B5806B0023C385CD
:102B440001F072F908BD704790F84230222B07B5A6
:102B540042D181680268836AB1F5805F3FD101691F
:102B640000293FD15268C2F3080223F8022B836282
:102B7400C38D013B9BB2C385002B2DD10268D16864
:102B840021F02001D160D16821F48071D1605169B4
:102B940021F001015161202280F842204363026B3D
:102BA400012A026828D1036302F10C0353E8003FB1
:102BB40023F0100302F10C0C4CE800310029F3D18E
:102BC4001368DB0605D501911368019353680193DB
:102BD400019B818DFFF7B7FF03B05DF804FB39B9A2
:102BE400016929B95268D2B21A70836A0133BEE707
:102BF400526802F07F02F7E701F010F9ECE70000F9
:102C040003681A6873B51607D9685D69044608D164
:102C1400960668D58D0666D502B0BDE87040FFF70C
:102C240093BF05F0010001F4907505435BD0D6070E
:102C340005D5CD0542BF636C43F0010363645307BC
:102C440004D518B1636C43F002036364960704D59A
:102C540018B1636C43F004036364150707D501F0EE
:102C6400200303431EBF636C43F008036364636C77
:102C7400002B32D0920604D58B0602D52046FFF7EE
:102C840063FF26687369626C03F0400302F0080274
:102C940053EA0205204622D0FFF746FE73695E061A
:102CA40018D5226802F1140353E8003F23F04003CF
:102CB400143242E800310029F3D1E06B50B1774B74
:102CC4000365FFF779FA40B1E06B036D02B0BDE82C
:102CD40070401847204601F0A7F802B070BD01F01B
:102CE400A3F86564F9E7206B012840F09B80D506C2
:102CF40040F19880C80640F19580002201921A683C
:102D040001925A680192019A5A69A18D520656D5C8
:102D1400E06B0268526892B2002A47D0914245D9CA
:102D2400E285C269B2F5807F36D003F10C0252E825
:102D3400002F22F4807203F10C0040E800210029E6
:102D4400F3D103F1140252E8002F22F0010203F13F
:102D5400140040E800210029F3D103F1140252E8E1
:102D6400002F22F0400203F1140040E80021002962
:102D7400F3D1202284F84220216303F10C0252E8AB
:102D8400002F22F0100203F10C0040E8002100297A
:102D9400F3D1E06BFFF7D2F902236363E38DA18DD6
:102DA400C91A89B22046FFF7CEFE96E7914294D124
:102DB400C369B3F5807F90D102236363F2E7E28DA8
:102DC400E08D80B292B2002887D0891A89B2002996
:102DD40083D003F10C0252E8002F22F4907203F125
:102DE4000C0545E800200028F3D103F1140252E851
:102DF400002F22F0010203F1140545E80020002809
:102E0400F3D1202284F84220206303F10C0252E81B
:102E1400002F22F0100203F10C0545E800200028E1
:102E2400F3D1C9E7160628D50D0626D594F8412016
:102E3400212A7FF452AFA168226AB1F5805F17D1CD
:102E44002169A9B932F8021BC1F308015960226251
:102E5400E28C013A92B2E284002A7FF43EAFDA684F
:102E640022F08002DA60DA6842F04002DA6034E785
:102E7400511C216212785A60EAE750067FF52DAFA3
:102E84004A067FF52AAFDA6822F04002DA6020238E
:102E940084F84130204600F0C4FF1EE73D2B0008B3
:102EA40090F84030012B11D00268242380F841307F
:102EB400D36823F00C0343F00803D360202380F885
:102EC4004130002380F84030184670470220704794
:102ED40090F84030012B11D00268242380F841304F
:102EE400D36823F00C0343F00403D360202380F859
:102EF4004130002380F84030184670470220704764
:102F040090F8412090F8420010437047C285002396
:102F1400828502694364222380F842308162036817
:102F24001AB1DA6842F48072DA605A6942F0010236
:102F34005A61DA6842F02002DA600020704770B506
:102F440090F84260202E07D141B13AB100240463C5
:102F5400FFF7DCFF204670BD0220FCE70120FAE702
:102F6400836810B504462BB1032201469847002319
:102F7400C4E9023310BD00001B4B984221D0B0F1CC
:102F8400804F20D0A3F57C4398421ED003F5806384
:102F940098421CD003F5806398421AD003F59A3303
:102FA400984218D003F58063984216D003F58063E5
:102FB400984214D04FF6FF734FF6FF72934210D12C
:102FC400FEE70023F8E70120704702207047032042
:102FD400704704207047052070470620704707207B
:102FE40070470020704700BF00000140014670B5E3
:102FF400044651F8100FFFF7BFFF0546084600F0DE
:103004008FFC094A002342F8253004F16006E3608E
:1030140004F1B005B54204D0103D2846FDF7E2FDA9
:10302400F8E7204670BD00BF5C020020F8B50446F6
:103034000846FFF7A1FF236903B1FEE71B4D84F89F
:103044002C3004F10C0245F8202004F110060E2265
:10305400C4E90C33C4E90E33C4E91033C4E91623BC
:103064002161A36484F84C3084F84D30E460304628
:1030740000F0C6FB04F1600504F1B00728461035E2
:10308400FFF76EFFBD42F9D10023C4E900334FF6C8
:10309400FF72C4E90632C4E90833A3606361802384
:1030A400A3623046BDE8F840FFF710BC5C02002084
:1030B40010B5074C206810B10430FFF733FBA0694A
:1030C40020B1BDE810400430FFF72CBB10BD00BF99
:1030D4005C020020034B186810B10430FFF722BBD8
:1030E400704700BF5C020020034B586810B10430E5
:1030F400FFF718BB704700BF5C020020034B9868C1
:1031040010B10430FFF70EBB704700BF5C02002013
:10311400034BD86810B10430FFF704BB704700BFFD
:103124005C020020034B186910B10430FFF7FABAAF
:10313400704700BF5C020020034B586910B1043093
:10314400FFF7F0BA704700BF5C020020034BD86958
:1031540010B10430FFF7E6BA704700BF5C020020EC
:103164000022C0E90022C0E902227047F8B50446F3
:103174000E4600F1600500F1B00728461035FFF750
:10318400EFFFBD42F9D10023204623613146FFF70A
:103194004DFF2046F8BD826810B50AB901F055FE0E
:1031A400BDE81040C368184708B500B9FEE700F051
:1031B40025FB0068836E13B16030FFF7ECFF08BD98
:1031C400FFF7F2BF10B500B9FEE7037F013B072B01
:1031D40010D8DFE803F004140F100F0F0F120124AE
:1031E40000F00CFB0068063400EB041083680BB19C
:1031F400FFF7D1FF10BD0324F2E70424F0E7022413
:10320400EEE7FFF7DFBFFFF7DDBF01F0FFBA01F024
:1032140005BB000086B00023052853D8DFE800F082
:1032240003111E2B38450093274B28481A6B42F094
:1032340001021A631B6B03F001030093009B06B0A9
:1032440070470193204B22481A6B42F002021A6322
:103254001B6B03F002030193019BF0E702931A4BEB
:103264001C481A6B42F004021A631B6B03F004033C
:103274000293029BE3E70393134B17481A6B42F044
:1032840008021A631B6B03F008030393039BD6E73E
:1032940004930D4B11481A6B42F010021A631B6B16
:1032A40003F010030493049BC9E70593064B0C48F1
:1032B4001A6B42F080021A631B6B03F080030593C0
:1032C400059BBCE70020BAE700380240000002403A
:1032D4000004024000080240000C024000100240BA
:1032E400001C0240F8B51349134F064600F03CFA9F
:1032F400FFF742FE57F82030054673B9B020FFF7B8
:1033040084FF0C490446304600F02EFA014620465C
:10331400FFF72CFF57F825301C601C6844B1204689
:10332400FFF764FE2046B021BDE8F840FFF76FBF09
:10333400F8BD00BFF05100085C02002037B5FEF76D
:103344005BFE4FF0E0250446AB690093FEF754FEA4
:10335400AB6901936969844201F101014FF47A7305
:1033640008D0019A8A1A5A43B2FBF1F203FB0020F7
:1033740003B030BD009A8A1A5A43B2FBF1F203FB40
:103384000420F5E7FEF738BE704708B5FEF728FEBF
:10339400FEF7BFFEFFF7F8FF08BD704784B0114B7E
:1033A40000220192196C41F080511964196C01F0EA
:1033B4008051019101990292596C41F48041596400
:1033C400596C01F480410291029903921A6B42F400
:1033D40080521A631B6B03F480530393039B04B062
:1033E400704700BF003802400C4BD3F8FC20D201D8
:1033F4005EBFD3F8FC2042F08072C3F8FC20084B77
:1034040000225A601A6842F001021A6000BF00BF2D
:1034140000BF5868B0FA80F04009704700ED00E042
:10342400001000E008B5FFF7B9FFFFF7DDFFFEF776
:10343400BDFDFFF7B2FF00F085FDBDE8084001487F
:10344400FEF76CBE280000200023C0E90033C0E969
:10345400023370470023012803F101020AD1142228
:10346400DBB25343054A181D1044816829B11A443C
:103474001369184740081346EDE770477C020020A3
:103484000120FEF7ABBE0220FEF7A8BE0420FEF723
:10349400A5BE0820FEF7A2BE1020FEF79FBE08B509
:1034A4002020FEF79BFE4020FEF798FE8020FEF7CA
:1034B40095FE4FF48070FEF791FEBDE808404FF48E
:1034C4000070FEF78BBE38B506244FF48065A8B2B1
:1034D400FEF784FE013C4FEA4505F8D138BD0000F3
:1034E400344A104608B5062300F8043BFFF7ACFF46
:1034F400072302F118001375FFF7A6FF082302F152
:103504002C0082F82830FFF79FFF092302F14000C6
:1035140082F83C30FFF798FF0A2302F1540082F846
:1035240050301721FFF790FF02F1680082F8641011
:10353400FFF78AFF02F17C0082F87810FFF784FF1E
:1035440002F1900082F88C10FFF77EFF02F1A400D4
:1035540082F8A010FFF778FF02F1B80082F8B410E7
:103564002821FFF771FF02F1CC0082F8C810FFF7A1
:103574006BFF02F1E00082F8DC10FFF765FF02F157
:10358400F40082F8F010FFF75FFF02F5847082F810
:103594000411FFF759FF02F58E7082F81811FFF736
:1035A40053FFBDE8084002F5987082F82C11FFF72C
:1035B4004BBF00BF7C02002038B5054CA4F5A075B4
:1035C400143C201DFDF70EFBAC42F9D138BD00BF01
:1035D400BC03002030B591FAA1F391FAA1F1B3FA3A
:1035E40083F3C4685B000325B1FA81F105FA03F3A0
:1035F400490024EA03038A401A43C26030BD431CD5
:1036040004D00C3151F80C3C5A1C01D100207047F5
:10361400834201F10C01F5D101207047F8B5471C34
:1036240006460D4600D1FEE700F00F02414BC0F301
:10363400031053F82240FFF7EDFD94FAA4F3B3FA14
:1036440083F3876803225B0002FA03F394FAA4F27B
:10365400B2FA82F227EA03075200032393403B4362
:1036640005F007018360032903D8DFE801F05F61F7
:103674002C03FEE7032394FAA4F2B2FA82F206685A
:103684005200032707FA02F226EA020694FAA4F289
:10369400B2FA82F2520093400139334301290360A4
:1036A40005D843682A074CBF2343A3434360C5F3AB
:1036B4000112012A02D0022A18BF00222146BDE8C5
:1036C400F840FFF787BFC5F306227F2A01D1022302
:1036D400D1E7360716D5230A93FAA3F6B6FA86F687
:1036E400476A93FAA3F3B6004FF00F0CB3FA83F3CF
:1036F4000CFA06F69B0027EA060602FA03F33343A4
:103704004362E4E794FAA4F3B3FA83F3066A9B00F2
:103714000F2707FA03F326EA030694FAA4F3B3FA8D
:1037240083F39B009A4032430262D0E70023A2E76E
:103734000123A0E7D8500008431C06D170478342F8
:1037440002D18968FFF76ABF0C310B685A1CF6D1A5
:10375400FEE70B685A1C01D100207047834201D157
:10376400486870470C31F4E7431C01D0FFF7F1BF00
:10377400002070474B6813B94FF0FF307047834205
:1037840001D1086870470C31F4E708B1FFF7F2BFC4
:103794004FF0FF30704703468B42084604D01BB1FC
:1037A40000290CBF18460020704700001049D1F8CA
:1037B400883043F47003C1F888300E4B1A6842F025
:1037C40001021A6000229A601A6822F0847222F4BC
:1037D40080321A60084A5A601A6822F480221A60F9
:1037E4004FF43F02DA604FF000638B60704700BF14
:1037F40000ED00E000380240103000240438704727
:1038040003683F4A934288B01BD1002200923D4A8C
:10381400516C41F001015164526C02F001020092BA
:10382400009A394A93421BD100230593354B5A6CB5
:1038340042F480325A645B6C03F480330593059B35
:103844004CE0B3F1804F1BD1002201922D4A116C40
:1038540041F001011164126C02F001020192019A1B
:103864002A4A93421BD100230693264B5A6C42F4F6
:1038740000325A645B6C03F400330693069B2DE01C
:10388400234A93421BD1002202921E4A116C41F03A
:1038940002011164126C02F002020292029A1D4AA1
:1038A40093421BD100230793164B5A6C42F4802297
:1038B4005A645B6C03F480230793079B0EE0164A5B
:1038C40093420DD1002303930E4B1A6C42F0040271
:1038D4001A641B6C03F004030393039B08B0704742
:1038E4000E4A93429DD100230493064B1A6C42F076
:1038F40008021A641B6C03F008030493049BEDE7AD
:1039040000000140003802400040014000440140F2
:10391400000400400048014000080040000C004042
:103924000368234A93420ED122494A6C22F00102D1
:103934004A64214A93420ED102F57842536C23F42F
:10394400803353647047B3F1804F0DD119490A6C29
:1039540022F001020A64194A93420DD102F574421D
:10396400536C23F40033ECE7154A93420DD111490B
:103974000A6C22F002020A64124A9342E2D102F56E
:103984007042536C23F48023DBE70F4A934206D141
:1039940002F50C32136C23F00403136470470B4AD2
:1039A4009342C6D102F50B32136C23F00803F4E7FB
:1039B4000000014000380240004001400044014042
:1039C400000400400048014000080040000C004092
:1039D400431C21D0184B984221D00BD8A3F5006387
:1039E40098421ED003F5806398421CD0B0F1804FFA
:1039F4001BD0FEE7114B984219D008D8A3F5884391
:103A0400984214D003F58043984212D0F1E70C4B4E
:103A14009842EED11A2070476FF00D0070473220A3
:103A240070471D2070471E2070471C2070471920C6
:103A340070471820704700BF000C0040004401404C
:103A440000480140431C21D0194B984221D010D882
:103A5400A3F5784398421ED007D8B0F1804F1CD00C
:103A6400A3F5806398421AD0FEE7124B984218D00F
:103A7400FAE7114B984216D003F58063984214D0AC
:103A8400A3F500639842EFD1182070476FF00D0042
:103A940070471B2070471E2070471C2070471D2054
:103AA400704732207047192070471A20704700BFB2
:103AB40000000140000C00400044014038B5FFF70D
:103AC4009FFE04460068FFF783FFD4E91212FEF755
:103AD400ABFA2068FFF77CFFFEF7D8FA226810469D
:103AE400FFF7B0FF05461046FFF772FF85420BD083
:103AF4002846D4E91212FEF797FA2068FFF7A2FFCE
:103B0400BDE83840FEF7C2BA38BD00002DE9F04FD9
:103B14008B4685B092469946044618B9002005B0F4
:103B2400BDE8F08F6749406DFFF71EFE6649064603
:103B3400A06DFFF719FE65490746E06DFFF714FE17
:103B440063490546206EFFF70FFE8046002EE5D040
:103B5400A36D013301D0002FE0D0E36D013301D018
:103B6400002DDBD0236E013302D0B8F1000FD5D085
:103B740030463946FFF70FFE0646206020B901465D
:103B8400FFF709FE0646206029463046FFF703FE8C
:103B940041462060FFF7FFFD20600028BED04D4B5A
:103BA400984254D103F594335A6A42F010025A628F
:103BB4005A6A22F010025A6200220192596C41F0B2
:103BC400100159645B6C03F010030193019B1346CD
:103BD40025223C49606D84F8653084F86420FFF741
:103BE400ABFD1FB13849A06DFFF7A6FD2DB13749D4
:103BF400E06DFFF7A1FD4FF48075B8F1000F05D01B
:103C04003349206E45F40075FFF796FD94F865205E
:103C1400314B94F96400C4F80CA0261D43F82260CB
:103C24002368C4E9013B0E9B0022C4E904390C2338
:103C3400C4E9063522620121FEF7F6F93046002F69
:103C44003CD1FEF72DFFB0FA80F0400967E7234B23
:103C5400984217D103F5FA331A6A42F400321A6211
:103C64001A6A22F400321A62002202921A6C42F496
:103C740000321A641B6C03F400330293029B262265
:103C84000123A6E7164B98427FF448AF03F592331D
:103C94005A6A42F020025A625A6A22F020025A6298
:103CA400002203925A6C42F020025A645B6C03F0C7
:103CB40020030393039B472202238AE7FEF7C1FEF6
:103CC400C1E700BFB45100087851000854510008FE
:103CD4003051000800100140BC03002000440040A3
:103CE4000014014008B5074B90F8652053F82200F2
:103CF400FFF706F900F02200A0F1220358425841D0
:103D040008BD00BFBC03002008B5074B90F8652030
:103D140053F82200FFF7F4F800F02100A0F121038A
:103D24005842584108BD00BFBC03002070B50E4680
:103D3400054610B94FF0FF3070BDFFF7D3FF0446BE
:103D44000028F7D12946012211F8663F337095F80F
:103D54006500034B53F82000FFF7F1F82046EBE72A
:103D6400BC03002038B50D460446B8B1FFF7BAFFCE
:103D7400A0B994F96400E564FEF796F994F8650037
:103D8400074B04F1660153F820000122FFF7D7F82E
:103D940094F96400BDE83840FEF778B938BD00BF37
:103DA400BC03002038B515460446B8B1016590F946
:103DB4006400FEF779F9E36EB4F8761094F86500C0
:103DC40013FA81F1064BAAB253F82000FEF79BFECA
:103DD40094F96400BDE83840FEF758B938BD00BF17
:103DE400BC03002048B1836D013306D190F86520EF
:103DF400024B53F82200FFF753B87047BC0300206E
:103E040048B1836D013306D190F86520024B53F815
:103E14002200FFF75DB87047BC030020836C0438B0
:103E24001847C36C0438184730B5044650F80439B1
:103E34001D6815F0010585B012D0002200921A68A1
:103E440000925B680093009BFFF74CFF40BB01228C
:103E540004F16201204605B0BDE83040FFF76FB8B9
:103E6400196811F0020106D001951A6801925B6885
:103E74000193019BE8E71A6812F0040206D002914C
:103E84001A6802925B680293029BDDE719680907CE
:103E9400DAD503921A6803925B680393039BD3E712
:103EA40005B030BD08B52520FEF724F9024B18688B
:103EB400BDE80840FEF7A4BEBC03002008B52620D8
:103EC400FEF718F9034B586818B1BDE80840FEF72F
:103ED40097BE08BDBC03002008B54720FEF70AF9C9
:103EE400024B9868BDE80840FEF78ABEBC03002078
:103EF4000A490346086810B50344EFF30882934265
:103F040005D9074B0C221A604FF0FF3010BD054A4B
:103F1400054C121B9342F4D20B60F7E734000020E7
:103F2400380600200000012000040000FEE7000025
:103F3400024B16221A604FF0FF30704738060020FB
:103F44000120704710B594B0102200210AA800F097
:103F54001BFD1422002103A800F016FD204B0021B4
:103F640001911A6C42F080521A641B6C1D4A03F0D2
:103F740080530193019B0291136823F4404343F45B
:103F840000431360136803F440430293029B01222D
:103F94004FF48033CDE9082302244FF48003CDE9A4
:103FA4000E4319214FF4A8730420CDE910130723FD
:103FB400CDE9120308A8FEF71DF900B1FEE70F23AF
:103FC400CDE903344FF48053CDE906300590214602
:103FD40003A8FEF7EBFA00B1FEE714B010BD00BF72
:103FE4000038024000700040B0F80831B0F80421F5
:103FF400981A00F03F007047B0F80831B0F8042177
:104004009BB293421ABFD0F8FC30985C4FF0FF305B
:10401400704790F80631B0F80A01C0B2834227BF56
:10402400C3F13F03C018C01A00F1FF30704707B551
:1040340003688DF807105B6801220DF107019847AA
:1040440003B05DF804FB13B50DF107010446FFF757
:104054006DFE88B9B4F87430B4F87020013303F0FD
:104064003F03934208D0B4F87420A16E9DF8070072
:1040740092B28854A4F8743002B010BDB0F876201F
:10408400816F11FA82F202F03F0210B5A0F8762097
:10409400B0F87610B0F8722089B28A421AD0B0F81B
:1040A4007640B0F87610A4B24032121B544289B262
:1040B40004F03F0402F03F02C1F1400158BF6242E4
:1040C4008A4228BF0A4682670349FFF76BFE4FF016
:1040D400FF3010BD0020FCE7814000082DE9F843C3
:1040E400036804469B688846164698470123237450
:1040F400D4F8EC30B4F8067101338146C7F14007B7
:1041040009D194F8113133B1002384F8113104F149
:104114009400FFF767FE236820469B6898470028B1
:10412400F9D03546BD4225D84D4523D8B4F80631DB
:10413400D4F800015A19402A184430D82A46414676
:1041440000F060FC2F46B4F806311D4405F03F052D
:10415400A4F8065104F194052846FFF7D5FD30B9BB
:104164001649C4F80C713A462846FFF71BFE304640
:10417400BDE8F8834F45236828BF4F463A46414679
:104184005B6820469847236820469B689847ED1B48
:10419400B844B4F806718146C7F14007C2E7C3F1D9
:1041A40040073A46414600F02DFCD4F80001EA1BD2
:1041B40008EB070100F026FCC5E700BF81400008BA
:1041C400C0F8F030009BC0F8F430914208BF4FF0C3
:1041D400FF3100F11403C0E93A21C0F8FC3000F1CA
:1041E40054020023A0F80831C0E94023A0F80A31A2
:1041F4007047000073B54FF47A750026C0E9016575
:104204003D4D0560CDB2232D069C25D83B4E56F876
:10421400255001F4E0612943D5B2232D30D8374E1F
:1042240056F8255002F4E0622A43DDB2232D3BD830
:10423400324E56F8255003F4E0632B43E5B2232DA8
:1042440046D82E4E56F8255004F4E0642C430094CE
:10425400FFF7B6FF02B070BD01F0C006C02E0CD14E
:10426400C92D0AD8264D01F03F0601F4E06155F846
:104274002660224D55F82650CDE74FF0FF31CBE7AD
:1042840002F0C006C02E0CD1C92D0AD81C4D02F074
:104294003F0602F4E06255F82660184D55F82650A2
:1042A400C2E74FF0FF32C0E703F0C006C02E0CD1C6
:1042B400C92D0AD8124D03F03F0603F4E06355F804
:1042C40026600E4D55F82650B7E74FF0FF33B5E79B
:1042D40004F0C006C02E0CD1C92D0AD8084D04F034
:1042E4003F0604F4E06455F82660044D55F8265062
:1042F400ACE74FF0FF34AAE774540008D453000825
:10430400AC530008F7B54FF47A7317460022C0E99E
:1043140001231C4B03604FF0FF33C0F8EC301A4B01
:104324001A4E04469C42706A0D4605D1B36AC4F81D
:10433400EC30C4F8E8000AE01549FFF715FA8542A5
:1043440015D1B36AC4F8EC30736AC4F8E830012FAD
:104354004FF0FF3308BFC4F8EC3000932046D4E993
:104364003A214FF0FF33FFF72BFF03B0F0BD0949AB
:104374002846FFF70AFA0649C4F8EC002846FFF776
:1043840004FAD6E774540008C8030020D453000884
:10439400B451000878510008037C70B504460D46FA
:1043A400A3B1FDF729FE0646B4F80621B4F80A3194
:1043B4009BB29A420AD0002DF8D0FDF71DFE801B57
:1043C4008542F1D8B4F80A31A4F8063170BD002151
:1043D400FFF7E2BFD0F8EC30013310B504460ED13C
:1043E4000368DB68984794F8113143B9012384F8D2
:1043F400113104F19400BDE81040FFF701BD10BD78
:104404007FB502F00703023BDBB2042B144680F8AD
:10441400122198BF204AC0F8141198BFD25C04F04E
:10442400300388BF0022302B054607D101324FF4F8
:10443400C063082A09D0092A24D0FEE714F0200317
:1044440025D001324FF48063F3E70022E87C039027
:10445400A87C0290C4F3C004687C019005F1940622
:10446400640300943046FFF751FB85F8100188B1CE
:104474002846FFF7AFFF0949304604B0BDE8704055
:10448400FFF770BC4FF48052E0E71A46DEE7082AD3
:10449400FBD0D2E704B070BD645400084B40000860
:1044A40010B50446FFF796FFB4F80821B4F80431B8
:1044B40092B29A421FBFD4F8FC20D05C013303F0BF
:1044C4003F0314BFA4F804314FF0FF3010BD0000C7
:1044D400024903480022FFF715BF00BF0010014046
:1044E400C803002070B505460C46084649B1FBF7E1
:1044F4004FFE2B680246214628465B68BDE87040A3
:10450400184770BD08B50249FFF7ECFF08BD00BFAE
:10451400A04E000838B50546FFF7E4FF04462846D8
:10452400FFF7F0FF204438BDFFF7F4BF10B5044691
:1045340000F048F9E060236820465B69984700284A
:1045440008DA00F03FF9E368C01AA3689842F2D38E
:104554004FF0FF3010BDF8B507460D468E180C46D7
:10456400B44201D1601BF8BD3846FFF7DFFF431C9E
:10457400F8D004F8010BF3E72DE9F041074688462B
:1045840016461D4673B100243846FFF7CFFF431C7F
:1045940005D0404503D030550134A542F4D120461E
:1045A400BDE8F0811C46FAE708B50320FDF72AFDB3
:1045B400BDE8084000F026B908B5AFF30080FCF769
:1045C40035FAFCF789FA00F00FF9FAE7DFF834D08E
:1045D400FFF7ECF80C480D490D4A002302E0D458CB
:1045E400C4500433C4188C42F9D30A4A0A4C002339
:1045F40001E013600432A242FBD300F0DDF9FFF7BF
:10460400DBFF70470000012000000020880000202C
:10461400C85400088800002040060020FEE700007F
:10462400C3B2232B2DE9F0410D462AD8274A52F86C
:10463400233000F4E0641C43621C44D0244EC4F3D1
:10464400031704F00F0856F8273023FA08F3DB07A2
:1046540010D520492046FEF7D2FF10B12046FEF7C0
:1046640041FE56F82730012202FA08F223EA020337
:1046740046F82730052D15D8DFE805F015211B1D58
:104684001F2300F0C002C02A1DD1C92B1BD8124B16
:1046940000F03F0200F4E06453F822200B4B53F87F
:1046A4002230C8E7FEE700212046BDE8F041FEF7CE
:1046B400B5BF1021F8E72021F6E70321F4E7012133
:1046C400F2E70921F0E7BDE8F08100BFD453000808
:1046D400E0040020F0510008AC530008C3B2232BBF
:1046E40019D8164A52F8233000F4E0601843431CEA
:1046F40010D0C0F30313052B98BF114A00F00F002C
:1047040098BF52F823200F4B88BF002253F8203063
:1047140091B19361704700F0C002C02AFAD1C92B4D
:10472400F8D8094B00F03F0200F4E06053F822206F
:10473400024B53F82230D9E71B04EAE7D4530008AC
:1047440010000020D8500008AC530008C3B2232B3B
:1047540019D8184A52F8233000F4E0601843431C77
:1047640022D0C0F30313052B20D8134A00F00F0006
:1047740052F82320114B126953F8203093430CBF95
:1047840001200020704700F0C002C02A0CD1C92BC0
:104794000AD80B4B00F03F0200F4E06053F82220EB
:1047A400044B53F82230D9E70020704700231B69DB
:1047B400FFDE00BFD453000810000020D8500008CA
:1047C400AC530008FEF7DEBDFEF7B8BD38B50446AD
:1047D40048B1FEF7D7FD054600F016F8FEF7D2FD06
:1047E400431BA342F8D338BD08B5044B2BB104488E
:1047F400FFF7FAFB08B1AFF3008008BD000000002A
:10480400C8030020FEF70EBE70470000024B0146AD
:10481400186800F02DB800BF38000020024B014694
:10482400186800F0FDB800BF3800002070B50F4EC6
:104834000C463168054611B900F0AEF830602146E7
:10484400284600F0A9F8431C03D14FF0FF3420465A
:1048540070BDC41C24F00304A042F8D0211A2846D9
:1048640000F09AF80130F2D1EFE700BFF80400201D
:104874002DE9F843CD1C25F0030508350C2D38BF70
:104884000C25002D064601DBA94204D90C23336014
:104894000020BDE8F883DFF8D48000F069F8D8F888
:1048A40000301C4644BB29463046FFF7BFFF431C7B
:1048B400044658D1D8F800402746002F43D1002C95
:1048C4004BD023683946304604EB030900F064F802
:1048D400814542D121686D1A29463046FFF7A6FF6B
:1048E40001303AD023682B442360D8F800305A684A
:1048F40062BBC8F800700FE02268521B20D40B2A58
:1049040017D96119A342256018BF5960636808BFAD
:10491400C8F8001062514B60304600F02FF804F1E3
:104924000B00231D20F00700C21A1CBF1B1AA35042
:10493400AFE76268A3420CBFC8F800205A60EBE7F7
:1049440023466468AEE73C467F68B6E71A465B6870
:10495400A342FBD100235360DEE70C2333603046CF
:1049640000F00CF894E70560D6E700BFFC040020D3
:10497400014800F045B800BF3C060020014800F0A3
:1049840040B800BF3C06002002440346934200D1D5
:10499400704703F8011BF9E738B5064D00230446B8
:1049A40008462B60FFF7A4FA431C02D12B6803B11D
:1049B400236038BD3806002070B50D4B0D4D5B1BD0
:1049C4009C100026A64209D100F042FA0A4D0B4B76
:1049D4005B1B9C100026A64205D170BD55F8043B14
:1049E40098470136EEE755F8043B98470136F2E75D
:1049F400A0540008A0540008A0540008B8540008AB
:104A0400704770470A44914200F1FF3300D1704768
:104A140010B511F8014B03F8014F9142F9D110BDC3
:104A240038B50546002941D051F8043C0C1F002B31
:104A3400B8BFE418FFF79CFF1D4A136833B96360DD
:104A440014602846BDE83840FFF798BFA34208D950
:104A5400206821188B4201BF19685B68091821601E
:104A6400EDE71A465B680BB1A342FAD911685018F6
:104A7400A0420BD120680144501883421160E0D158
:104A840018685B68536008441060DAE702D90C23A5
:104A94002B60D6E7206821188B4204BF19685B6835
:104AA400636004BF091821605460CAE738BD00BFC1
:104AB400FC04002008B5062000F02CF80120FFF7C4
:104AC40035FA1F2938B505460C4604D91623036068
:104AD4004FF0FF3038BDC26B12B152F821304BB9E0
:104AE400284600F031F8224601462846BDE8384001
:104AF40000F018B8012B0AD0591C03D11623036007
:104B04000120E7E7002142F82410204698470020BE
:104B1400E0E70000024B01461868FFF7D2BF00BF70
:104B24003800002038B5074D0023044608461146D6
:104B34002B60FFF7FDF9431C02D12B6803B12360FE
:104B440038BD00BF38060020FFF7FAB92DE9F04759
:104B5400089D0F4604468C46002B48D18A421646CF
:104B640061D9B2FA82F34BB1C3F1200201FA03FC1A
:104B740020FA02F29E4042EA0C0C9C404FEA164E88
:104B8400B7B2BCFBFEF1220C0EFB11CC42EA0C4284
:104B940001FB07F0904209D9B21801F1FF3C80F003
:104BA400EE80904240F2EB8002393244121AA4B2F1
:104BB400B2FBFEF00EFB102244EA024400FB07F7AE
:104BC400A74209D9341900F1FF3280F0DA80A742F4
:104BD40040F2D7803444023840EA0140E41B00210B
:104BE4001DB1DC400023C5E90043BDE8F0878B42DA
:104BF40006D90DB1C5E9000100210846BDE8F087DA
:104C0400B3FA83F1002948D1BB4202D3824200F2B5
:104C14000781841A67EB030201209446002DE4D037
:104C2400C5E9004CE1E7002A00F09280B2FA82F371
:104C3400002B40F0A8808A1A4FEA164E1FFA86FC11
:104C44000121200CB2FBFEF70EFB172240EA0242C0
:104C54000CFB07F0904207D9B21807F1FF3802D2D3
:104C6400904200F2E2804746121AA4B2B2FBFEF070
:104C74000EFB102244EA02440CFB00FCA44507D9B5
:104C8400341900F1FF3202D2A44500F2CB80104661
:104C9400A4EB0C0440EA0740A2E7C1F120068B40D4
:104CA40022FA06FC4CEA030C07FA01F420FA06F394
:104CB400F7404FEA1C49234300FA01F81FFA8CFE1F
:104CC400B7FBF9F01C0C09FB107744EA074400FB1E
:104CD4000EF7A74202FA01F20AD91CEB040400F110
:104CE400FF3A80F09B80A74240F2988002386444E7
:104CF400E41B9FB2B4FBF9F309FB134447EA0444F1
:104D040003FB0EFEA64509D91CEB040403F1FF378F
:104D140080F08280A6457FD9023B644443EA004088
:104D2400A4EB0E04A0FB02E7BC427346B94663D36E
:104D340060D05DB1B8EB030264EB090404FA06F633
:104D440022FA01F31E43CC40C5E9006400214CE77C
:104D54006208480842EAC1710B0C43EA00438AB274
:104D640042EA0342B3FBF6F1E407B4463746B646DB
:104D74001F23B0FBF6F0D21B41EA004161E7614614
:104D840014E7104628E7C3F1200120FA01F29E40FF
:104D940027FA01F19F403A434FEA164E1FFA86FC68
:104DA400B1FBFEF70EFB1710110C41EA004107FBA3
:104DB4000CF8884504FA03F43AD9711807F1FF3066
:104DC40001D288451FD8A1EB0801B1FBFEF808FB0E
:104DD4000CF70EFB181192B242EA0142BA422FD2EA
:104DE400B21808F1FF31C6D2BA42C4D2A8F1020106
:104DF4003244C0E7F0459CD2BEEB020367EB0C07DC
:104E04000138B94695E7A6EB08084144B81EB1FB42
:104E1400FEF808FB0CF7DCE73B467FE7504667E704
:104E24000846FBE63444023832E7023F32441BE7CB
:104E3400A1EB08013846B1FBFEF808FB0CF7C8E704
:104E4400414698E708B5FFF735FE08B5FFF732FE8F
:104E5400F8B500BFF8BC08BC9E467047F8B500BF63
:084E6400F8BC08BC9E46704733
:104E6C005253343835204D4F4442555320544553FA
:104E7C0054205354415254454400766563746F7208
:104E8C003A3A5F4D5F7265616C6C6F635F61707015
:104E9C00656E64000D0A00000000000000000000B8
:104EAC00310C0008F50900080000000000000000AB
:104EBC00310C0008F509000800000000000000009B
:104ECC00310C0008E50B00080000C0C1C181014095
:104EDC00C30103C00280C241C60106C00780C7419E
:104EEC000500C5C1C4810440CC010CC00D80CD416E
:104EFC000F00CFC1CE810E400A00CAC1CB810B403E
:104F0C00C90109C00880C841D80118C01980D9410D
:104F1C001B00DBC1DA811A401E00DEC1DF811F409D
:104F2C00DD011DC01C80DC411400D4C1D5811540AD
:104F3C00D70117C01680D641D20112C01380D341BD
:104F4C001100D1C1D0811040F00130C03180F1414D
:104F5C003300F3C1F28132403600F6C1F78137409D
:104F6C00F50135C03480F4413C00FCC1FD813D406D
:104F7C00FF013FC03E80FE41FA013AC03B80FB413D
:104F8C003900F9C1F88138402800E8C1E98129408D
:104F9C00EB012BC02A80EA41EE012EC02F80EF419D
:104FAC002D00EDC1EC812C40E40124C02580E541AD
:104FBC002700E7C1E68126402200E2C1E3812340BD
:104FCC00E10121C02080E041A00160C06180A141CD
:104FDC006300A3C1A28162406600A6C1A78167409D
:104FEC00A50165C06480A4416C00ACC1AD816D406D
:104FFC00AF016FC06E80AE41AA016AC06B80AB413D
:10500C006900A9C1A88168407800B8C1B98179400C
:10501C00BB017BC07A80BA41BE017EC07F80BF419C
:10502C007D00BDC1BC817C40B40174C07580B541AC
:10503C007700B7C1B68176407200B2C1B3817340BC
:10504C00B10171C07080B041500090C1918151404C
:10505C00930153C052809241960156C0578097419C
:10506C00550095C1948154409C015CC05D809D416C
:10507C005F009FC19E815E405A009AC19B815B403C
:10508C00990159C058809841880148C0498089418C
:10509C004B008BC18A814A404E008EC18F814F409C
:1050AC008D014DC04C808C41440084C185814540AC
:1050BC00870147C046808641820142C043808341BC
:1050CC00410081C1808140400000000001000000CF
:1050DC0002000000040000000800000010000000A6
:1050EC0020000000400000008000000000010000D3
:1050FC000002000000040000000800000010000086
:10510C0000200000004000000080000000000000B3
:10511C00010203040000000000000000010203046F
:10512C0006070809000000000044004012070000B8
:10513C000B0000000010014012070000FFFFFFFFF2
:10514C0000000000000000000100000000440040CE
:10515C00120700000C0000000010014012070000B4
:10516C00FFFFFFFF00000000000000000300000034
:10517C0000440040120700000A000000001001402B
:10518C00120700000C00000000140140120800007F
:10519C00170000000010014012070000FFFFFFFF86
:1051AC00000000000000000002000000004400406D
:1051BC001207000009000000001001401207000057
:1051CC000B00000000140140120800001600000043
:1051DC000010014012070000FFFFFFFF000000005D
:1051EC0000000000000100000000004012810000DF
:1051FC0000000000000C00401282000001010000C1
:10520C00000000401201010001000000000C0040F1
:10521C001202010002010000000000401281010096
:10522C0002000000000C004012820100020200008B
:10523C000040014012830000030100000000004008
:10524C001201020003000000000C004012020200D8
:10525C0003020000004001401203010005000000A1
:10526C000000004012810000060000000004004015
:10527C0012820000070100000000014012811000A2
:10528C0007000000000400401202010008000000AA
:10529C0000000140128100000900000000000140E4
:1052AC00120101000A0000000000014012810100FF
:1052BC000B00000000000140120102000F00000072
:1052CC0000000040128100001001000000000140AD
:1052DC0012011100100000000004004012820100B5
:1052EC0011010000000001401281110011000000AA
:1052FC0000040040120202001300000000000040F5
:10530C001201010014000000000400401282000091
:10531C0015000000000400401202010016000000FD
:10532C000008004012820000170000000008004036
:10533C001202010018000000000800401282010057
:10534C001801000000440140128300001900000005
:10535C000008004012020200190100000048014040
:10536C00128300001A0000000000004012810100AE
:10537C001D00000000000140128110001E00000002
:10538C0000000140120111001F000000000001404C
:10539C0012811100FFFFFFFF000000000000000061
:1053AC0000000000010000000200000003000000EB
:1053BC0004000000050000000600000007000000CB
:1053CC0010000000110000000000000001000000AF
:1053DC0002000000030000000400000005000000B3
:1053EC000600000007000000080000000900000093
:1053FC000A0000000B0000000C0000000D00000073
:10540C000E0000000F000000100000001100000052
:10541C001200000013000000140000001500000032
:10542C001600000017000000180000001900000012
:10543C001A0000001C0000001D0000001E000000EF
:10544C001F0000002D0000002E0000002F000000A7
:10545C00500000005100000006000700080000008A
:10546C00000000000000000033400008E14000088C
:10547C0017400008D3430008ED3F0008A54400087E
:0C548C00FD3F00085B4500087D4500085E
:08549800FCACFF7F01000000E5
:1054A000AD450008D90900082D0B0008191B00089C
:0854B000E5340008D5440008B2
:1054B800B5090008BD0B0008451B0008BD350008EC
:1054C8000A0014001E00280032000100100000002D
:1054D800000002400004024000080240000C0240A4
:1054E80000100240001C0240003002400000000092
:1054F8000024F400400600203C00002000000000CA
:105508000005002068050020D005002000000000EC
:105518000000000000000000000000000000000083
:105528000000000000000000000000000000000073
:105538000000000000000000000000000000000063
:0855480000000000000000005B
:04000005080045D1D9
:00000001FF
